S018000053656E736F72436F6E74726F6C6C65722E737265636E
S113000071C000008EC000008CC000008AC00000D7
S113001088C0000086C0000084C0000082C00000C8
S113002080C000007EC000007CC000007AC00000D8
S113003078C0000076C0000074C0000072C00000E8
S113004070C000006EC000006CC000006AC00000F8
S113005068C0000066C0000064C0000062C0000008
S113006060C000005EC000005CC000005AC0000018
S113007058C0000056C0000054C0000052C0000028
S113008050C000004EC000004CC000004AC0000038
S113009048C0000046C0000044C0000042C0000048
S11300A040C000003EC000003CC000003AC0000058
S11300B038C0000036C0000034C0000032C0000068
S11300C030C000002EC000002CC000006EC0000034
S11300D028C0000026C0000024C0000022C0000088
S11300E020C0000011241FBECFEFD1E2DEBFCDBF80
S11300F000E00CBF12E0A0E0B2E0EAE1F3E000E0CF
S11301000BBF02C007900D92A630B107D9F722E0C9
S1130110A6E0B2E001C01D92A830B207E1F722D0F8
S1130120FAC06ECF21E048E060E875E280E090E03C
S113013050D0789408951F93CF93DF93C62F872FC1
S1130140142FD22FB0D08C2FAED081E0111101C06A
S113015080E08195A8D08C2F8D0FA5D0DF91CF9111
S11301601F910895CF93DF931F92CDB7DEB7CE01D1
S11301700196D8DF8FEF84B900E010E005B9202F95
S11301802370402F4170B801CE010196D4DF85E081
S11301908A95F1F700000F5F1F4F0F3F8FEF18078D
S11301A069F780E092E087D0FCCF1F920F920FB6E0
S11301B00F9211248F939F9381E090E09093070214
S11301C0809306029F918F910F900FBE0F901F9006
S11301D01895CF92DF92EF92FF921F93CF93DF9304
S11301E0122F6B017C012CE2C21A21E0D20AE10831
S11301F0F10825EDC21620ECD20621E0E206F10456
S113020008F049C04550443008F045C020E220932E
S1130210D000C1EDD0E028E12883440F4093D20000
S11302206B017C0120E8C20E24E8D21E2EE1E21EFE
S1130230F11CCC0CDD1CEE1CFF1CCC0CDD1CEE1CDC
S1130240FF1CCC0CDD1CEE1CFF1CDC01CB01880F59
S1130250991FAA1FBB1F880F991FAA1FBB1F9C01B0
S1130260AD01220F331F441F551F220F331F441F9C
S1130270551FC701B6012DD0215031093093D50047
S11302802093D4008881112311F090E801C090E0FC
S1130290892B8093D100DF91CF911F91FF90EF9034
S11302A0DF90CF900895E0EDF0E0908195FFFDCFD1
S11302B08093D6000895CF93DF93EC01888188233F
S11302C029F02196F0DF89918111FCCFDF91CF9144
S11302D00895A1E21A2EAA1BBB1BFD010DC0AA1F83
S11302E0BB1FEE1FFF1FA217B307E407F50720F09B
S11302F0A21BB30BE40BF50B661F771F881F991F16
S11303001A9469F760957095809590959B01AC015E
S10D0310BD01CF010895F894FFCF5A
S109031A444F4E450000B3
S9030000FC
