S018000053656E736F72436F6E74726F6C6C65722E737265636E
S113000071C000008EC000008CC000008AC00000D7
S113001088C0000086C0000084C0000082C00000C8
S113002080C000007EC000007CC000007AC00000D8
S113003078C0000076C0000074C0000072C00000E8
S113004070C000006EC000006CC000006AC00000F8
S113005068C0000066C0000064C0000062C0000008
S113006060C000005EC000005CC000005AC0000018
S113007058C0000056C0000054C0000052C0000028
S113008050C000004EC000004CC000004AC0000038
S113009048C0000046C0000044C0000042C0000048
S11300A040C000003EC000003CC000003AC0000058
S11300B038C0000036C0000034C0000032C0000068
S11300C030C000002EC000002CC00000D6C00000CC
S11300D028C0000026C0000024C0000022C0000088
S11300E020C0000011241FBECFEFD1E2DEBFCDBF80
S11300F000E00CBF12E0A0E0B2E0E6E8F4E000E0CB
S11301000BBF02C007900D92A033B107D9F722E0CC
S1130110A0E3B2E001C01D92A233B207E1F74CD0D4
S1130120B0C16ECF84B1876084B92398289A8CB506
S113013080618CBD8CB583608CBD8CB580648CBDB6
S113014008956EBD0DB407FEFDCF8EB508950F93CF
S11301501F93CF93DF9365307105F0F4EB018C01AD
S1130160289866E0EEDFBE01002476956795079433
S1130170769567950794762F602DC801E2DFC82F26
S11301806FEFC801DEDF289A2C2F30E0322F2227B0
S1130190A901482BCA0102C08FEF9FEFDF91CF91D5
S11301A01F910F91089521E048E060E875E280E036
S11301B090E077D078940895CF93DF93CDB7DEB7EE
S11301C029970FB6F894DEBF0FBECDBFCE010196BE
S11301D0EADFCE010296A6DFAE014F5F5F4FBE019C
S11301E06E5F7F4FCE01069642D080E092E0CBD086
S11301F083E090E0D6D08EE292E0C5D084B58368E7
S113020084BD85B5816085BD279A00E010E007BDF7
S11302108FE99FE00197F1F700C000008BE192E0C5
S1130220B2D0C801BED081E292E0ADD063E070E00C
S1130230CE0102968CDFB5D08EE292E0A4D00F5F9F
S11302401F4F0F3F110519F78FEF84B985B18066F1
S113025085B98AE292E097D09AEA26EE36E981E0FF
S11302609150204030408040D9F70000F2CFFC018B
S1130270718360835383428308951F920F920FB654
S11302800F9211248F939F9381E090E09093310219
S1130290809330029F918F910F900FBE0F901F900B
S11302A01895CF92DF92EF92FF921F93CF93DF9333
S11302B0122F6B017C012CE2C21A21E0D20AE10860
S11302C0F10825EDC21620ECD20621E0E206F10485
S11302D008F049C04550443008F045C020E220935E
S11302E0D000C1EDD0E028E12883440F4093D20030
S11302F06B017C0120E8C20E24E8D21E2EE1E21E2E
S1130300F11CCC0CDD1CEE1CFF1CCC0CDD1CEE1C0B
S1130310FF1CCC0CDD1CEE1CFF1CDC01CB01880F88
S1130320991FAA1FBB1F880F991FAA1FBB1F9C01DF
S1130330AD01220F331F441F551F220F331F441FCB
S1130340551FC701B60148D0215031093093D5005B
S11303502093D4008881112311F090E801C090E02B
S1130360892B8093D100DF91CF911F91FF90EF9063
S1130370DF90CF900895E0EDF0E0908195FFFDCF00
S11303808093D6000895CF93DF93EC01888188236E
S113039029F02196F0DF89918111FCCFDF91CF9173
S11303A00895CF93DF93CDB7DEB727970FB6F894B0
S11303B0DEBF0FBECDBF4AE0BE016F5F7F4F2ED0C0
S11303C0CE010196E0DF27960FB6F894DEBF0FBE8C
S11303D0CDBFDF91CF910895A1E21A2EAA1BBB1BBA
S11303E0FD010DC0AA1FBB1FEE1FFF1FA217B307FD
S11303F0E407F50720F0A21BB30BE40BF50B661F13
S1130400771F881F991F1A9469F7609570958095D6
S113041090959B01AC01BD01CF010895BB274A30E3
S113042031F4992322F4BDE2909581959F4F01C048
S1130430BB27FB015527AA27880F991FAA1FA417BA
S113044010F0A41B83955051B9F7A05DAA3308F0AE
S1130450A95DA193009779F7B111B1931192CB01E2
S113046000C0DC01FC01672F71917723E1F732971B
S113047004C07C916D9370836291AE17BF07C8F37B
S10904800895F894FFCF7B
S113048654657374207374617274696E6720666F41
S113049672206368616E6E656C200050574D3A2079
S11304A6002056616C75653A2000446F6E650A003B
S9030000FC
