S018000053656E736F72436F6E74726F6C6C65722E737265636E
S113000071C0000081C000007FC000007DC00000FE
S11300107BC0000079C0000077C0000075C00000FC
S113002073C0000071C000006FC000006DC000000C
S11300306BC0000069C0000067C0000065C000001C
S113004063C0000061C000005FC000005DC000002C
S11300505BC0000059C0000057C0000055C000003C
S113006053C0000051C000004FC000004DC000004C
S11300704BC0000049C0000047C0000045C000005C
S113008043C0000041C000003FC000003DC000006C
S11300903BC0000039C0000037C0000035C000007C
S11300A033C0000031C000002FC000002DC000008C
S11300B02BC0000029C0000027C0000025C000009C
S11300C023C0000021C000001FC00000D8C00000F1
S11300D01BC0000019C0000017C0000015C00000BC
S11300E013C0000011241FBECFEFD1E2DEBFCDBF8D
S11300F000E00CBF22E0A0E0B2E001C01D92A230FB
S1130100B207E1F777D06BC17BCF84B1876084B944
S11301102398289A8CB580618CBD8CB583608CBD86
S11301208CB580648CBD08956EBD0DB407FEFDCF03
S11301308EB508950F931F93CF93DF9365307105A8
S1130140F0F4EB018C01289866E0EEDFBE01002498
S1130150769567950794769567950794762F602D25
S1130160C801E2DFC82F6FEFC801DEDF289A2C2F09
S113017030E0322F2227A901482BCA0102C08FEF99
S11301809FEFDF91CF911F910F91089521E048E0F7
S113019060E875E280E090E086D0789408951F933B
S11301A0CF93DF93C62F872F142FD22FEED08C2F0F
S11301B0ECD081E0111101C080E08195E6D08C2F54
S11301C08D0FE3D0DF91CF911F910895D6D0813068
S11301D041F0823041F0843041F0883041F08FEFBB
S11301E007C080E005C081E003C082E001C083E075
S11301F090E00895CF93DF93CDB7DEB727970FB67E
S1130200F894DEBF0FBECDBFCE010196BFDFCE0195
S113021002967BDF1F821E828FEF84B915B88E8110
S11302209F8101969F838E832F9A809100029091E3
S113023001020197C9F41092010210920002CE014A
S11302400196C4DF182F682F792FCE01029672DF32
S1130250212F41E0BC01CE010196A1DF8FE99FE08F
S11302600197F1F700C000002F98F89483B78160DC
S113027083BF7894889583B78E7F83BFD0CF1F9236
S11302800F920FB60F9211248F939F9381E090E009
S113029090930102809300029F918F910F900FBE63
S11302A00F901F901895CF92DF92EF92FF921F93B9
S11302B0CF93DF93122F6B017C012CE2C21A21E051
S11302C0D20AE108F10825EDC21620ECD20621E09D
S11302D0E206F10408F049C04550443008F045C036
S11302E020E22093D000C1EDD0E028E12883440F20
S11302F04093D2006B017C0120E8C20E24E8D21E98
S11303002EE1E21EF11CCC0CDD1CEE1CFF1CCC0CFF
S1130310DD1CEE1CFF1CCC0CDD1CEE1CFF1CDC01E8
S1130320CB01880F991FAA1FBB1F880F991FAA1FF3
S1130330BB1F9C01AD01220F331F441F551F220F09
S1130340331F441F551FC701B60127D0215031095F
S11303503093D5002093D4008881112311F090E8C4
S113036001C090E0892B8093D100DF91CF911F9140
S1130370FF90EF90DF90CF900895E0EDF0E0808162
S11303808823ECF78091D6000895E0EDF0E09081A9
S113039095FFFDCF8093D6000895A1E21A2EAA1BE3
S11303A0BB1BFD010DC0AA1FBB1FEE1FFF1FA21721
S11303B0B307E407F50720F0A21BB30BE40BF50B1E
S11303C0661F771F881F991F1A9469F760957095A7
S11303D0809590959B01AC01BD01CF010895F894DF
S10503E0FFCF49
S9030000FC
