:1000000071C0000079C0000077C0000075C000001A
:1000100073C0000071C000006FC000006DC0000020
:100020006BC0000069C0000067C0000065C0000030
:1000300063C0000061C000005FC000005DC0000040
:100040005BC0000059C0000057C0000055C0000050
:1000500053C0000051C000004FC000004DC0000060
:100060004BC0000049C0000047C0000045C0000070
:1000700043C0000041C000003FC000003DC0000080
:100080003BC0000039C0000037C0000035C0000090
:1000900033C0000031C000002FC000002DC00000A0
:1000A0002BC0000029C0000027C0000025C00000B0
:1000B00023C0000021C000001FC000001DC00000C0
:1000C0001BC0000019C0000017C0000015C00000D0
:1000D00013C0000011C000000FC000000DC00000E0
:1000E0000BC0000011241FBECFEFD1E2DEBFCDBF99
:1000F00000E00CBF28D0D7C083CF21E048E060E803
:1001000075E280E090E033C008951F93CF93DF93B2
:10011000C62F872F142FD22F9CD08C2F9AD081E0FE
:10012000111101C080E0819594D08C2F8D0F91D05A
:10013000DF91CF911F91089584D090E008958FEFC3
:1001400084B915B80895CF93DF931F92CDB7DEB76A
:10015000CE010196D2DFF3DFCE010196EDDF282F2D
:100160004FEF6AEA7AEACE010196CFDFF5CFCF9260
:10017000DF92EF92FF921F93CF93DF93122F6B01C9
:100180007C012CE2C21A21E0D20AE108F10825ED37
:10019000C21620ECD20621E0E206F10408F049C0C4
:1001A0004550443008F045C020E22093C800C9EC17
:1001B000D0E028E12883440F4093CA006B017C0102
:1001C00020E8C20E24E8D21E2EE1E21EF11CCC0C67
:1001D000DD1CEE1CFF1CCC0CDD1CEE1CFF1CCC0C33
:1001E000DD1CEE1CFF1CDC01CB01880F991FAA1F30
:1001F000BB1F880F991FAA1FBB1F9C01AD01220FB7
:10020000331F441F551F220F331F441F551FC701A3
:10021000B60127D0215031093093CD002093CC0076
:100220008881112311F090E801C090E0892B809320
:10023000C900DF91CF911F91FF90EF90DF90CF9099
:100240000895E8ECF0E080818823ECF78091CE00FF
:100250000895E8ECF0E0908195FFFDCF8093CE000B
:100260000895A1E21A2EAA1BBB1BFD010DC0AA1FF7
:10027000BB1FEE1FFF1FA217B307E407F50720F00F
:10028000A21BB30BE40BF50B661F771F881F991F8A
:100290001A9469F760957095809590959B01AC01D3
:0A02A000BD01CF010895F894FFCFCF
:00000001FF
